S01100002E2E2F50726F746575732E73313966
S32D0000C0000000002061C2000015C300001BC3000021C3000027C300002DC300000000000000000000000000005B
S32D0000C0280000000033C3000039C30000000000003FC3000045C30000C5CA0000D1CA0000DDCA0000E9CA00006A
S32D0000C050F5CA000001CB00000DCB000019CB000025CB000031CB00003DCB000049CB000055CB000061CB000027
S32D0000C0786DCB000079CB000085CB000091CB00009DCB0000A9CB0000B5CB0000C1CB0000CDCB0000D9CB00004E
S32D0000C0A0E5CB0000F1CB0000FDCB000009CC000015CC000021CC00002DCC000039CC000045CC000051CC00006F
S32D0000C0C85DCC000069CC000075CC000081CC00008DCC000099CC0000A5CC0000B1CC0000BDCC0000C9CC000094
S32D0000C0F0D5CC000099110100E1CC0000EDCC0000F9CC000005CD000011CD00001DCD000029CD000035CD000019
S32D0000C11841CD00004DCD000059CD000065CD000071CD00007DCD000089CD000095CD0000A1CD0000ADCD000051
S32D0000C140B9CD0000C5CD0000D1CD0000DDCD0000A1F40000E9CD0000F5CD000001CE00000DCE000019CE0000D3
S32D0000C16825CE000031CE00003DCE000049CE000055CE000061CE00006DCE000079CE000085CE000091CE00000F
S32D0000C1909DCE0000A9CE0000B5CE0000B9F1000081F000001DF1000049C8000059F20000C1CE0000CDCE00006D
S32D0000C1B8D9CE0000E02E01000000002060150000E02E01000000FF1F0000000060150020680400000000FF1FC2
S32D0000C1E00000000080B489B000AFF860B9607A60BB68FB61FB68BB6100237B610AE0BB691A1DBA611A68FB6987
S32D0000C208191DF9611A607B6904337B617A697B689A42F0D300BF00BF2437BD4680BC704780B485B000AF7860E3
S32D0000C23039607B68FB600023BB6007E0FB681A1DFA6000221A60BB680433BB60BA683B689A42F3D300BF00BFFA
S32D0000C2581437BD4680BC704780B586B000AF72B6234B4CF220521A80214B4DF628121A80204B4FF4E9721A8057
S32D0000C2801F4B7B6113E07B691A1D7A611B687B607B691A1D7A611B68FB607B691A1D7A611B68BB60BA68F96818
S32D0000C2A87868FFF79BFF7B69144A9342E7D30DE07B691A1D7A611B68FB607B691A1D7A611B68BB60B968F86851
S32D0000C2D0FFF7AAFF7B690C4A9342EDD30B4B3B610B4A3B691A6005F0B3FF62B600F074FB00F016FAFEE700BFAB
S32D0000C2F80E20054000200540BCC10000D4C10000E4C1000008ED00E000C0000080B400AFFEE780B400AFFEE764
S32D0000C32080B400AFFEE780B400AFFEE780B400AFFEE780B400AFFEE780B400AFFEE780B400AFFEE780B400AF5C
S32D0000C348FEE780B400AFFEE7FFFFFFFFFFFFFFFFFFFFFFFFFFFFFFFFFFFFFFFFFFFFFFFFFFFFFFFFFFFFFFFF3A
S32D0000C370FFFFFFFFFFFFFFFFFFFFFFFFFFFFFFFFFFFFFFFFFFFFFFFFFFFFFFFFFFFFFFFFFFFFFFFFFFFFFFFFC7
S32D0000C398FFFFFFFFFFFFFFFFFFFFFFFFFFFFFFFFFFFFFFFFFFFFFFFFFFFFFFFFFFFFFFFFFFFFFFFFFFFFFFFF9F
S32D0000C3C0FFFFFFFFFFFFFFFFFFFFFFFFFFFFFFFFFFFFFFFFFFFFFFFFFFFFFFFFFFFFFFFFFFFFFFFFFFFFFFFF77
S32D0000C3E8FFFFFFFFFFFFFFFFFFFFFFFFFFFFFFFFFFFFFFFFFFFFFFFFFFFFFFFFFFFFFFFFFFFFFFFFFEFFFFFF50
S32D0000C4100348044B834202D0034B03B1184770476015002060150020000000000548064B1B1AD90F01EBA30140
S32D0000C438491002D0034B03B11847704760150020601500200000000010B5064C237843B9FFF7DAFF044B13B1D9
S32D0000C4600448AFF300800123237010BD601500200000000010C4000008B5044B1BB104490448AFF30080BDE81B
S32D0000C4880840CFE7000000006415002010C40000F0B583B000AF78603960414802F036FF404802F033FF7868E7
S32D0000C4B005F0E4FD034619463D4800F095FD786805F0DCFD034619463A4800F08DFD37E0364802F00DFF0446AA
S32D0000C4D8334802F009FF03469C42B4BF01230023DBB2002B14D07B680233184605F0C2FD034619462D4800F00D
S32D0000C50073FD7B68023B184605F0B8FD03461946274800F069FD13E07B68023B184605F0ADFD034619462348E5
S32D0000C52800F05EFD7B680233184605F0A3FD034619461D4800F054FD1A4802F0D5FE0446174802F0D1FE034667
S32D0000C5502344184605F03CF94FF000024FF0804305F0CAFA02460B4614461D46386805F02FF902460B46012104
S32D0000C5780E462046294605F003FC0346002B01D100231E46F3B2002B9ED1074800F0E6FC064800F0E3FC00BF6F
S32D0000C5A00C37BD46F0BD00BF7C15002080150020841500208C150020F0B583B000AF78603960264802F0A6FEDF
S32D0000C5C8254802F0A3FE786805F054FD03461946224800F005FD7B685B42184605F04AFD034619461E4800F003
S32D0000C5F0FBFC00BF1A4802F07BFE0446174802F077FE03462344184605F0E2F84FF000024FF0804305F070FA0B
S32D0000C61802460B4614461D46386805F0D5F802460B4601210E462046294605F0A9FB0346002B01D100231E46F2
S32D0000C640F3B2002BD6D1074800F08CFC064800F089FC00BF0C37BD46F0BD00BF7C15002080150020841500203B
S32D0000C6688C150020F0B583B000AF78603960264802F04CFE254802F049FE7B685B42184605F0F8FC034619462C
S32D0000C690214800F0A9FC786805F0F0FC034619461E4800F0A1FC00BF1A4802F021FE0446174802F01DFE0346F1
S32D0000C6B82344184605F088F84FF000024FF0804305F016FA02460B4614461D46386805F07BF802460B460121B9
S32D0000C6E00E462046294605F04FFB0346002B01D100231E46F3B2002BD6D1074800F032FC064800F02FFC00BFEB
S32D0000C7080C37BD46F0BD00BF7C15002080150020841500208C15002080B586B000AF14237B6129233B61D22367
S32D0000C730FB600021264803F0F4FB6FF07F41244803F040FC2349224803F0E5FD2249204803F0E1FD00BF3A1DF0
S32D0000C75807F1080319461C4803F0A6FC034683F00103DBB2002BF2D100BF3A1D07F108031946154803F098FCC1
S32D0000C7800346002BF5D13A691346DB009B1A5B0019467869FFF780FEF9687869FFF766FF3A6913469B0013442B
S32D0000C7A85B0019467869FFF773FEF9687869FFF7FFFE3B699B0019467869FFF769FE002318461837BD4680BD40
S32D0000C7D0741800205C2B0100782B010080B582B000AF786039607B68012B16D13B684FF6FF72934211D10021B5
S32D0000C7F80A4802F0E3FA0121094802F0DFFA094A0021094800F06CFB064A0121074800F067FB00BF0837BD4684
S32D0000C82080BD00BF7C1500208015002000001041841500208C15002080B500AF4FF6FF710120FFF7CBFF80BD06
S32D0000C84880B500AF0F4BD3F8A03003F48053002B14BF01230023DBB2002B10D0094BD3F8A030084A23F4805317
S32D0000C870C2F8A030064804F0BFFD064B1B68054A23F40053136000BF80BD00BF00C00440FC180020C0F00F4020
S32D0000C89880B400AF124B4FF480725A63114B5B69104A43F4005353610E4B1B680D4A43F4005313600A4B0C4AAD
S32D0000C8C01A630C4BD3F888310A4A43F08063C2F88831084B9B68074A43F08063936000BFBD4680BC704700BFF1
S32D0000C8E800C00440C0F00F4003010A0000E100E080B400AF334B00225A70324B98221A7000BF304B9B79DBB267
S32D0000C91003F01003002B14BF01230023DBB2002BF3D100BF294B9B79DBB29B08DBB203F00303022B14BF012311
S32D0000C9380023DBB2002BF1D1224B18221A71214B00225A71204B03F580531A461F4B53641C4B54225A7100BF8B
S32D0000C9601A4B9B79DBB203F02003002B0CBF01230023DBB2002BF3D100BF144B9B79DBB203F04003002B0CBFE9
S32D0000C98801230023DBB2002BF3D10E4B1B78DBB20C4A03F03F03DBB2137000BF094B9B79DBB29B08DBB203F0D3
S32D0000C9B00303032B14BF01230023DBB2002BF1D100231846BD4680BC704700BF0040064000700440000013010D
S32D0000C9D880B500AF314B03F580539B6B2F4A43F4785302F580529363FFF752FFFFF780FF2B4B58221A602A4B2B
S32D0000CA001B684FF47A7202FB03F3284A1360274B1B681A46234B03F580535B6C1B0E03F00F030133B2FBF3F334
S32D0000CA281A46214B1A601D4B03F58053DB6B1B4A43F0225302F58052D363184B03F580531B6B164A43F000636B
S32D0000CA5002F580521363174B4FF480721A61642002F060F8134B5B69124A23F010035361104B00221A600F4BF0
S32D0000CA7810225A610E4803F0EFF802F0C1FC02F01FFD0C4802F0ACF80B4804F005FD4FF4FA6002F057F900BFE5
S32D0000CAA080BD00BF00700440C0170020BC170020C417002000D0034074180020B81700206C19002080B500AF9C
S32D0000CAC8FFF73FFC00BF80BD80B500AFFFF739FC00BF80BD80B500AFFFF733FC00BF80BD80B500AFFFF72DFC00
S32D0000CAF000BF80BD80B500AFFFF727FC00BF80BD80B500AFFFF721FC00BF80BD80B500AFFFF71BFC00BF80BD43
S32D0000CB1880B500AFFFF715FC00BF80BD80B500AFFFF70FFC00BF80BD80B500AFFFF709FC00BF80BD80B500AF68
S32D0000CB40FFF703FC00BF80BD80B500AFFFF7FDFB00BF80BD80B500AFFFF7F7FB00BF80BD80B500AFFFF7F1FB7A
S32D0000CB6800BF80BD80B500AFFFF7EBFB00BF80BD80B500AFFFF7E5FB00BF80BD80B500AFFFF7DFFB00BF80BD81
S32D0000CB9080B500AFFFF7D9FB00BF80BD80B500AFFFF7D3FB00BF80BD80B500AFFFF7CDFB00BF80BD80B500AFA7
S32D0000CBB8FFF7C7FB00BF80BD80B500AFFFF7C1FB00BF80BD80B500AFFFF7BBFB00BF80BD80B500AFFFF7B5FBF3
S32D0000CBE000BF80BD80B500AFFFF7AFFB00BF80BD80B500AFFFF7A9FB00BF80BD80B500AFFFF7A3FB00BF80BDBD
S32D0000CC0880B500AFFFF79DFB00BF80BD80B500AFFFF797FB00BF80BD80B500AFFFF791FB00BF80BD80B500AFE2
S32D0000CC30FFF78BFB00BF80BD80B500AFFFF785FB00BF80BD80B500AFFFF77FFB00BF80BD80B500AFFFF779FB6A
S32D0000CC5800BF80BD80B500AFFFF773FB00BF80BD80B500AFFFF76DFB00BF80BD80B500AFFFF767FB00BF80BDF8
S32D0000CC8080B500AFFFF761FB00BF80BD80B500AFFFF75BFB00BF80BD80B500AFFFF755FB00BF80BD80B500AF1E
S32D0000CCA8FFF74FFB00BF80BD80B500AFFFF749FB00BF80BD80B500AFFFF743FB00BF80BD80B500AFFFF73DFBE2
S32D0000CCD000BF80BD80B500AFFFF737FB00BF80BD80B500AFFFF731FB00BF80BD80B500AFFFF72BFB00BF80BD34
S32D0000CCF880B500AFFFF725FB00BF80BD80B500AFFFF71FFB00BF80BD80B500AFFFF719FB00BF80BD80B500AF5A
S32D0000CD20FFF713FB00BF80BD80B500AFFFF70DFB00BF80BD80B500AFFFF707FB00BF80BD80B500AFFFF701FB59
S32D0000CD4800BF80BD80B500AFFFF7FBFA00BF80BD80B500AFFFF7F5FA00BF80BD80B500AFFFF7EFFA00BF80BD72
S32D0000CD7080B500AFFFF7E9FA00BF80BD80B500AFFFF7E3FA00BF80BD80B500AFFFF7DDFA00BF80BD80B500AF98
S32D0000CD98FFF7D7FA00BF80BD80B500AFFFF7D1FA00BF80BD80B500AFFFF7CBFA00BF80BD80B500AFFFF7C5FAD5
S32D0000CDC000BF80BD80B500AFFFF7BFFA00BF80BD80B500AFFFF7B9FA00BF80BD80B500AFFFF7B3FA00BF80BDAE
S32D0000CDE880B500AFFFF7ADFA00BF80BD80B500AFFFF7A7FA00BF80BD80B500AFFFF7A1FA00BF80BD80B500AFD4
S32D0000CE10FFF79BFA00BF80BD80B500AFFFF795FA00BF80BD80B500AFFFF78FFA00BF80BD80B500AFFFF789FA4C
S32D0000CE3800BF80BD80B500AFFFF783FA00BF80BD80B500AFFFF77DFA00BF80BD80B500AFFFF777FA00BF80BDE9
S32D0000CE6080B500AFFFF771FA00BF80BD80B500AFFFF76BFA00BF80BD80B500AFFFF765FA00BF80BD80B500AF0F
S32D0000CE88FFF75FFA00BF80BD80B500AFFFF759FA00BF80BD80B500AFFFF753FA00BF80BD80B500AFFFF74DFAC4
S32D0000CEB000BF80BD80B500AFFFF747FA00BF80BD80B500AFFFF741FA00BF80BD80B500AFFFF73BFA00BF80BD25
S32D0000CED880B500AFFFF735FA00BF80BD0000000080B584B000AFF8600B467A60FB72FB68FA7A1A71FB68002238
S32D0000CF005A711749786805F079F90346002B02D0134B7B600AE04FF07E51786805F05AF90346002B02D04FF06D
S32D0000CF287E537B60786804F061FC09A3D3E9002304F0B4FC02460B461046194604F090FF0246FB681A60FB6876
S32D0000CF5018461037BD4680BDABAAAAAAAAAA20400000404180B582B000AF78607B685B79002B09D07B68002242
S32D0000CF785A717B6819791E230022034801F06AFE00BF0837BD4680BDB817002080B584B000AF786039603B68EB
S32D0000CFA07F2B02DD7F23FB7308E03B6813F1800F02DA8023FB7301E03B68FB737B685B79FA7B9A4209D07B6809
S32D0000CFC8FA7B5A717B681979FA7B1E23034801F041FE00BF1037BD4680BD00BFB8170020B0B584B000AF786041
S32D0000CFF039603749386805F0E3F80346002B02D0334B3B6008E03349386805F0F7F80346002B01D02F4B3B60E9
S32D0000D018386804F0EBFB04460D467B681B68184604F0E4FB4FF00002294B04F061FD02460B462046294604F0D3
S32D0000D04031FC02460B461046194604F00DFF03463B604FF00001386805F0C6F80346002B10D0386804F0C6FB27
S32D0000D06817A3D3E9002304F019FC02460B461046194604F0ADFE0346FB6018E0386804F0B5FB4FF00002134B8C
S32D0000D09004F008FC02460B46104619464FF000020D4B04F029FD02460B461046194604F093FE0346FB60F968A1
S32D0000D0B87868FFF76BFF00BF1037BD46B0BD00BF52B81E85EB51F43F0000C8C20000C8420000594000006040EC
S32D0000D0E080B483B000AF03460A46FB711346BB71BB79002B03D1134B00221A7002E0114B01221A703823FB7193
S32D0000D1080E4B1A78FB791343FB710D4B9B78DBB20B4A43F01003DBB29370094B9B78DBB2074A43F02003DBB28D
S32D0000D1309370054AFB79137100BF0C37BD4680BC704700BF941500200060064080B483B000AF01237B6003E069
S32D0000D15800BF7B6801337B607B68312BF8DD00BF00BF0C37BD4680BC7047000080B582B000AF03460A46FB7112
S32D0000D1801346BB71134B1B7800211846FFF7A8FF00F024F8104AFB79137100F01FF80E4ABB79137100F01AF878
S32D0000D1A80B4B9B78DBB20A4A23F02003DBB29370074B9B78DBB2064A23F01003DBB29370FFF7C0FF00BF08379E
S32D0000D1D0BD4680BD951500200060064080B483B000AF174B1B78002B24D100237B600CE07B6842F210729342FE
S32D0000D1F803DD114B01221A700FE07B6801337B6000BF0E4BDB78DBB203F00203002B0CBF01230023DBB2002B5A
S32D0000D220E6D1084BDB78DBB2064A43F00203DBB2D37000E000BF0C37BD4680BC704700BF961500200060064096
S32D0000D24880B582B000AF0346FB71FB79184600F05FF800BF0837BD4680BD80B582B000AF03460A46FB71134622
S32D0000D270BB7100F035F8FB795B00DBB21846FFF7E3FFBB791846FFF7DFFF00F037F800BF0837BD4680BD80B5BD
S32D0000D29800AFFF2000F03CF80346184680BD80B584B000AF0346FB7100F016F8FB795B005BB243F001035BB2A7
S32D0000D2C0DBB21846FFF7C0FFFFF7E5FF0346FB7300F014F8FB7B18461037BD4680BD000080B400AF044B9B6883
S32D0000D2E8034A43F48013936000BFBD4680BC704740F00F4080B400AF044B5B68034A43F48013536000BFBD4659
S32D0000D31080BC704740F00F4080B485B000AF0346FB710023BB7302E0FB7B0133FB73144BDB6A03F00043012B5F
S32D0000D3380CBF01230023DBB2002BF1D10E4BDB6A0D4A43F00043D3620B4AFB79536300BF094BDB6A03F400339A
S32D0000D360002B0CBF01230023DBB2002BF4D1044B9B6BBB73BB7B18461437BD4680BC704700C00A400000000083
S32D0000D38880B582B000AF204B03F580531B6B1E4A43F4805302F5805213631C4B4FF480721A651B4B5B691A4A4B
S32D0000D3B043F480135361FFF7A1FF164B4FF400725A65144B4FF400729A65124B4FF40072DA65124B124A1A60CF
S32D0000D3D8104B124ADA6000237B6005E0FF20FFF72FFF7B6801337B607B68092BF6DD04A1D1E9000101F0BCFC2B
S32D0000D40000BF0837BD4680BD9A9999999999B93F0070044000A0044040F00F4000C00A40000C00800500003E41
S32D0000D42890B486B000AFF860B9607A60FB68534A93420AD1524B03F580535B6B504A43F4806302F58052536351
S32D0000D45045E0FB684D4A93420AD14B4B03F580535B6B494A43F4006302F58052536336E0FB68474A93420AD152
S32D0000D478434B03F580535B6B414A43F4805302F58052536327E0FB68404A93420AD13C4B03F580535B6B3A4A13
S32D0000D4A043F4005302F58052536318E0FB683A4A93420AD1344B03F580539B6A324A43F4806302F58052936223
S32D0000D4C809E02F4B03F580539B6A2D4A43F4006302F580529362FB68DB78DBB223F00C03DAB2FB68DA70FB6833
S32D0000D4F000229A70BB684FF47A7203FB02F27B681B0192FBF3F39CB2FB681B78DBB223F01F03FB75230A9BB23C
S32D0000D518DBB203F01F03DAB2FB7D1343DAB2FB681A70E2B2FB685A70BB684FF4FA4203FB02F27B681B0192FB8F
S32D0000D540F3F39AB263019BB2D31A9CB2FB689B7ADBB223F01F03FB75E3B203F01F03DAB2FB7D1343DAB2FB6802
S32D0000D5689A72FB68DB78DBB243F00C03DAB2FB68DA7000BF1837BD4690BC704700A006400070044000B0064027
S32D0000D59000C0064000D0064000A00E4080B483B000AF786000BF7B681B79DBB203F02003002B0CBF012300235F
S32D0000D5B8DBB2002BF3D17B68DB79DBB218460C37BD4680BC704780B483B000AF78600B46FB7000BF7B681B798E
S32D0000D5E0DBB25BB2DB43DBB2DB09DBB2002BF5D17B68FA78DA7100BF0C37BD4680BC704780B487B000AFF8606C
S32D0000D608B9607A60FB687B6106E0BB68D9B27B695A1C7A610A461A707B685A1E7A60002B14BF01230023DBB218
S32D0000D630002BEED100BF00BF1C37BD4680BC704780B584B000AF786039607B681B6BFB60FA683B689A4252D0CB
S32D0000D6587B681B79002B35D07B6858787B6803F134010123FA6801F0F7F80346002B14BF01230023DBB2002B92
S32D0000D68001D001233CE07B6800221A717B685A6A7B681B6A1344FA689A4217D27B68DB78FB7210E07B681B6A53
S32D0000D6A8FA681344FB607B6858787B6803F134010123FA6801F0D0F8FB7A013BFB72FB7A012BEBD83B68002BF2
S32D0000D6D015D07B6858787B6803F1340101233A6800F0D8FF0346002B14BF01230023DBB2002B01D0012303E0DD
S32D0000D6F87B683A681A63002318461037BD4680BD80B584B000AF786000217868FFF794FF0346FB73FB7B002B28
S32D0000D72040F093807B681B78032B7DD17B685B79002B79D07B6800221A637B6834334FF4007200211846FFF785
S32D0000D7485BFF7B68552283F832227B68AA2283F833227B68522283F834207B68522283F835207B68612283F883
S32D0000D77036207B68412283F837207B68722283F818227B68722283F819227B68412283F81A227B68612283F8E6
S32D0000D7981B227B681B69DAB27B6883F81C227B681B699BB21B0A9BB2DAB27B6883F81D227B681B691B0CDAB22E
S32D0000D7C07B6883F81E227B681B691B0EDAB27B6883F81F227B68DB68DAB27B6883F820227B68DB689BB21B0AF8
S32D0000D7E89BB2DAB27B6883F821227B68DB681B0CDAB27B6883F822227B68DB681B0EDAB27B6883F823227B68BD
S32D0000D81058787B6803F134017B685A69012301F01FF87B6800225A717B685B7800220021184601F0E1F8034602
S32D0000D838002B14BF01230023DBB2002B01D00123FB73FB7B18461037BD4680BD80B582B000AF78600B467B80CD
S32D0000D8607B68002B08D07B681B78002B04D07B68DB887A889A4201D0092311E07B685B78184601F03BF90346AB
S32D0000D88803F00103002B14BF01230023DBB2002B01D0032300E0002318460837BD4680BD80B586B000AF7860B5
S32D0000D8B07B681A687B689B8819461046FFF7CAFF0346FB75FB7D002B40F0AC807B689B7903F02003002B00F08B
S32D0000D8D8A5807B689B7903F04003002B1BD07B681B6858787B6803F128017B689A69012300F0B2FF0346002B65
S32D0000D90014BF01230023DBB2002B01D001238AE07B689B7923F04003DAB27B689A717B681A687B68DB69194616
S32D0000D9281046FFF789FE0346FB75FB7D002B75D17B681B6A3B613B690B331A783B690B3342F02002D2B21A70A0
S32D0000D9507B68DA683B691C33D2B21A707B68DB689BB21B0A9AB23B691D33D2B21A707B68DB681A0C3B691E335C
S32D0000D978D2B21A707B68DB681A0E3B691F33D2B21A707B681A693B691A33D2B21A707B681B699BB21B0A9AB297
S32D0000D9A03B691B33D2B21A707B681B691A0C3B691433D2B21A707B681B691B0C9BB21B0A9AB23B691533D2B217
S32D0000D9C81A700023FB603B691633FA68D2B21A70FB689BB21B0A9AB23B691733D2B21A70FB681A0C3B69183337
S32D0000D9F0D2B21A70FB681A0E3B691933D2B21A707B689B7923F02003DAB27B689A717B681B6801221A717B68D4
S32D0000DA181B681846FFF774FE0346FB75FB7D18461837BD4680BD80B584B000AF78607868FFF736FF0346FB73C7
S32D0000DA40FB7B002B02D17B6800221A60FB7B18461037BD4680BD000080B588B000AF7860396080233B610F236C
S32D0000DA68FB604FF0FF337B610223FB6122E00123BB6119E0FB69BA6902FB03F33A6803FB02F27B68D31ABB6033
S32D0000DA90BB68002B09DBBB687A699A4205D9BB687B61FB693B61BB69FB60BB690133BB61BB69102BE2D9FB6906
S32D0000DAB85B00FB61FB69B3F5807FD8D91D4BDB6A1C4A23F00803D3621A4BDB6A23F47F2323F47F63BB613B694B
S32D0000DAE05B081B029AB2FB68013B1B01DBB21A43BB691343114A43F46023D36202E00A2001F024F90D4B5B6AAC
S32D0000DB0803F00803002B0CBF01230023DBB2002BF1D1084BDB6A074A43F00803D362054B1B6B044A43F48013F0
S32D0000DB30136300BF2037BD4680BD00BF00100B4080B582B000AF786039607B6800221A60414B424ADA6200BFC8
S32D0000DB583F4BDB6A03F08073002B14BF01230023DBB2002BF4D13A4B0022C3F8C020384B4FF481325A60364B32
S32D0000DB8028229A62344B4FF001125A643B689B6833491846FFF760FF00BF2F4B5B6A03F00303002B14BF0123B4
S32D0000DBA80023DBB2002BF4D12C4B40F243421A602A4B40F243425A60284B4FF488629A60264B40F24342DA6025
S32D0000DBD0244B40F243421A61224B40F243425A61214B03F580531B6B1F4A43F4003302F580521363184B4FF630
S32D0000DBF8FF721A63164B1B4A5A63154BDB6A144A43F00063D36200BF114BDB6A03F00063002B14BF01230023C5
S32D0000DC20DBB2002BF4D10C4B5B6A03F48033002B14BF01230023DBB2002B02D07B6801221A60054B1B6B044A20
S32D0000DC4843F080031363002318460837BD4680BD00100B400080000160CC050000D0044000700440B3007F007B
S32D0000DC7080B400AF064B5A6A40F207331340002B14BF01230023DBB21846BD4680BC704700100B4080B485B0E5
S32D0000DC9800AF7860064B1B6B7A681340FB60FB68002BF7D0FB6818461437BD4680BC704700100B4080B584B055
S32D0000DCC000AF78607B681B7803F03F03764A52F82330FB60FB68002B05D17B681B78002B01D00123DCE0714BDA
S32D0000DCE81B6B704A43F08003136300BF6D4B5B6A03F00103002B14BF01230023DBB2002BF4D1684A7B685B6855
S32D0000DD109360FB6823F44003FB607B685B789B0503F44003FA681343FB607B685B78022B03D1FB6843F40013D3
S32D0000DD38FB607B685B78042B16D1FB6803F44033B3F5003F08D1FB6823F44033FB60FB6843F44033FB6007E072
S32D0000DD60FB6823F44033FB60FB6843F40033FB604E4B5B684D4A9BB253607B68DB68002B2AD0FB6803F440331A
S32D0000DD88B3F5403F03D0FB6843F40013FB607B681B7A002B03D0FB6843F01003FB607B68DB68012B03D9FB6860
S32D0000DDB043F02003FB607B68DB68B3F1FF3F0BD03A4B5A687B68DB681B04384913434B60FB6843F00203FB60AD
S32D0000DDD8344B00221A60334AFB68D3603248FFF755FF0346012B14BF01230023DBB2002B09D02C4B1B6B2B4A99
S32D0000DE0043F4702343F001031363012348E0274B1B6B03F08003002B14BF01230023DBB2002B07D0214B1B6BFD
S32D0000DE28204A43F001131363012335E01D4B1B6B03F48033002B14BF01230023DBB2002B08D0184B1B6B174AB5
S32D0000DE5043F0011313634FF0FF3321E0FB6803F44033002B15D0114B1A697B681A61FB6803F44033B3F5803F27
S32D0000DE780BD10C4B5A697B685A610A4B9A697B689A61084BDA697B68DA61064B1B6B054A43F001031363002308
S32D0000DEA018461037BD4680BD982B010000100B4001000E0080B592B000AF7860396000237B643B68BB63994B03
S32D0000DEC87B637B6B002B02D140F601235FE3964B3B633B6B002B02D140F60B2357E33B6B1B68FB62FB6A002BF7
S32D0000DEF002D140F60B234EE37B6841F20932934200F23F837B68B3F5985F08D87B68032B00F01A837B68092BAB
S32D0000DF1800F0098331E37B68A3F59853013B082B00F22B8301A252F823F000BF59DF000045E20000A1E4000033
S32D0000DF405BE2000099E20000BFE3000007E4000049E3000063E300007649786BFFF7F0FD78647B6C002B40F059
S32D0000DF681083002387F84330002387F82B30002387F82A30002387F82930002387F84230002387F828300023BE
S32D0000DF903B7200237B720023FB6000233B7400237B6107F108031846FFF788FE0346002B14BF01230023DBB25F
S32D0000DFB8002B02D001237B64E8E240F24C4000F0C1FE08233B7200237B724FF4D573FB6000233B7400237B6165
S32D0000DFE007F108031846FFF769FEF863FB6B002B09D1BA69FB689A4202D001237B64C9E2012387F84230012374
S32D0000E00887F8283097F82830002B00F0A58037233B7200237B720023FB6000233B7400237B6107F10803184625
S32D0000E030FFF744FEF863FB6B002B02D001237B64A8E269233B7200237B720023FB6000233B7400237B6107F1AF
S32D0000E05808031846FFF72EFE0346002B14BF01230023DBB2002B02D001237B648EE2BB6903F44013002B6FD0AC
S32D0000E0800023FB630A2000F061FEFB6B0133FB6337233B7200237B720023FB6000233B7400237B6107F1080317
S32D0000E0A81846FFF707FE0346002B14BF01230023DBB2002B02D001237B6427E069233B7200237B7297F8423085
S32D0000E0D0002B02D0184BFB6002E04FF44013FB6000233B7400237B6107F108031846FFF7E5FD0346002B14BF43
S32D0000E0F801230023DBB2002B02D001237B6405E0BB69002B02DBFB6B632BB7D97B6C002B40F03982FB6B632BA0
S32D0000E1200CD9002387F842301AE000BFAC150020B01700208C2B010000003040012387F8433097F84230002BED
S32D0000E1480AD0002387F84230BB6903F08043002B02D0012387F8423097F82A30002B02D07B6B07221A6097F8D1
S32D0000E1702930002B02D07B6B08221A6097F82B30002B02D07B6B04221A6097F84330002B09D07B6B02221A60AA
S32D0000E19897F84230002B02D07B6B03221A6097F82B30002B0DD097F84330002B09D07B6B05221A6097F8423056
S32D0000E1C0002B02D07B6B06221A60924B00221A60904B00225A608F4B00229A608D4B0022DA608C4B00221A61DE
S32D0000E1E88A4B00225A61FB6A9A68FB6A5B6819461046FFF72DFC854B40F243421A60834B40F243425A60814BE8
S32D0000E2104FF488629A607F4B40F24342DA607D4B40F243421A617B4B40F243425A617A4B03F580531B6B784AF4
S32D0000E23843F4003302F580521363A7E1B86BFFF739FDF863FB6B002B00F09F8102237B649BE1BB6B002B02D198
S32D0000E2600C237B6496E16D4BDB6A1B0A5B0003F4FF73FB63694BDB6A1B0903F00F035A1CFB6B02FB03F3FB6378
S32D0000E288FB6A9A68FB6BB2FBF3F2BB6B1A607DE1BB6B002B02D10C237B6477E1BB6B1B68002B02D10C237B64CC
S32D0000E2B070E1FFF7DDFC0346002B0CBF01230023DBB2002B3CD0534B00221A60514B00225A60504B00229A606D
S32D0000E2D84E4B0022DA604D4B00221A614B4B00225A61FB6A9A68BB6B1B6819461046FFF7AFFB464B40F24342CE
S32D0000E3001A60444B40F243425A60424B4FF488629A60404B40F24342DA603E4B40F243421A613C4B40F243424C
S32D0000E3285A613B4B03F580531B6B394A43F4003302F58052136329E140F60A237B6425E1BB6B002B02D10C2364
S32D0000E3507B641FE1314B5B68C3F30C02BB6B1A6018E1BB6B002B02D10C237B6412E1FFF77FFC0346002B0CBF4F
S32D0000E37801230023DBB2002B19D0BB6B1B68B3F5805F02D30C237B6400E1224B5B68214A23F4FF5323F01F0362
S32D0000E3A053601E4B5A68BB6B1B68C3F30C031B4913434B60EEE040F60A237B64EAE0BB6B002B02D10C237B6492
S32D0000E3C8E4E0144B9B6A5B0803F00303FB63FB6B002B03D1BB6B00221A60D7E0FB6B012B03D1BB6B01221A603E
S32D0000E3F0D0E0FB6B102B03D1BB6B02221A60C9E005237B64C6E0BB6B002B09D10C237B64C0E000BF00D0044014
S32D0000E4180070044000100B40FFF726FC0346002B0CBF01230023DBB2002B31D0BB6B1B68002B0AD1584B9B6A19
S32D0000E440574A23F006039362554B554A9B6A9362A0E0BB6B1B68012B0CD1514B9B6A504A23F0060393624E4BAC
S32D0000E4689B6A4D4A43F0020393628FE0BB6B1B68022B0AD1484B9B6A474A23F006039362454B454A9B6A93624A
S32D0000E49080E005237B647DE040F60A237B6479E0BB6B002B02D10C237B6473E03C4BDB6A3B4A43F00063D3625E
S32D0000E4B800BF394BDB6A03F00063002B14BF01230023DBB2002BF4D1334B1B6B03F08003002B14BF01230023D7
S32D0000E4E0DBB2002B08D02E4B1B6B2D4A43F0800313637B6B00221A60294B5B6A03F48033002B14BF0123002332
S32D0000E508DBB2002B07D07B6B1B68002B06D17B6B01221A6002E07B6B00221A607B6B1A68BB6B1A6032E0BB6BC4
S32D0000E5301C221A60BB6B043304221A60BB6B08334FF41E721A6025E00220FFF7A3FB144B1B6B03F4E003002BB5
S32D0000E55814BF01230023DBB2002B07D00E4B1B6B0D4A43F4E003136304237B640A4B1B6B094A43F03203136314
S32D0000E58008E040F609237B6404E000BF02E000BF00E000BF7B6C18464837BD4680BD00BF00100B4080B489B0D6
S32D0000E5A800AF786039607B687B61364B3B613B69002B01D100235FE03B691B68022B0BD03B691B68032B07D0EB
S32D0000E5D03B691B68072B03D03B691B68082B0BD100BF2B4B5B6A03F00403002B14BF01230023DBB2002BF4D105
S32D0000E5F83B68FB613CE0FB69B3F5007F28BF4FF40073FB60FB6803339B08BB6129E01E4B1B6B03F4E003002B02
S32D0000E62014BF01230023DBB2002B09D0184B1B6B174A43F4E00343F02003136300231FE000BF134B5B6A03F4F6
S32D0000E6480063002B0CBF01230023DBB2002BF4D10D4B1A6A7B69191D79611A60BB69013BBB61BB69002BD2D1CF
S32D0000E670FA69FB68D31AFB61FB69002BBFD1012318462437BD4680BC704700BFAC15002000100B4080B58EB00D
S32D0000E69800AFB9607A601A460346FB731346BB73414B7B63FB7B002B02D1BB7B002B01D1042375E03D4B1B786C
S32D0000E6C0DBB203F00103002B14BF01230023DBB2002B01D0032367E0BB68002B01D1002362E07B6B1B7B002B41
S32D0000E6E802D17B685B027B60BB7B012B28D111233B7500237B757B68BB6101233B77BB7B3B6207F114031946AE
S32D0000E71041F20230FFF7CEFB0346002B0CBF01230023DBB2002B38D04FF40071B868FFF739FF0346002B14BF28
S32D0000E73801230023DBB2002B2BD00023BB7328E012233B7500237B757B68BB6101233B77BB7B3B6207F11403B1
S32D0000E760194641F20230FFF7A5FB0346002B0CBF01230023DBB2002B0FD0BB7B5B021946B868FFF70FFF0346B5
S32D0000E788002B14BF01230023DBB2002B01D00023BB73BB7B002B01D0012300E0002300BF18463837BD4680BD1F
S32D0000E7B0981500200400002080B487B000AF786039607B68FB603B687B613DE07B69B3F5007F28BF4FF400733D
S32D0000E7D83B617A693B69D31A7B613B6903339B083B612AE01B4B1B6B03F4E003002B14BF01230023DBB2002B41
S32D0000E8000AD0164B1B6B154A43F4E00343F0100313634FF0FF331BE000BF104B5B6A03F48063002B0CBF0123B5
S32D0000E8280023DBB2002BF4D1FB681A1DFA60094A1B6813623B69013B3B613B69002BD1D17B69002BBED1012334
S32D0000E85018461C37BD4680BC704700BF00100B4080B58EB000AFB9607A601A460346FB731346BB735D4B7B63A0
S32D0000E878FB7B002B02D1BB7B002B01D10423ACE0594B1B78DBB203F00103002B14BF01230023DBB2002B01D08F
S32D0000E8A003239EE0524B1B78DBB203F00403002B14BF01230023DBB2002B01D0022390E0BB68002B01D1002349
S32D0000E8C88BE07B6B1B7B002B02D17B685B027B60BB7B012B28D118233B7500237B757B68BB6100233B77BB7BBF
S32D0000E8F03B6207F11403194641F20230FFF7DAFA0346002B0CBF01230023DBB2002B38D04FF40071B868FFF7B0
S32D0000E9184FFF0346002B14BF01230023DBB2002B2BD00023BB7328E019233B7500237B757B68BB6100233B7716
S32D0000E940BB7B3B6207F11403194641F20230FFF7B1FA0346002B0CBF01230023DBB2002B0FD0BB7B5B02194653
S32D0000E968B868FFF725FF0346002B14BF01230023DBB2002B01D00023BB730D233B7500237B757B6B1B69BB6166
S32D0000E99000233B7700233B6207F11403194641F20230FFF787FA0346002B14BF01230023DBB2002B01D001233F
S32D0000E9B813E07A6A0D4B1340002B01D001230CE07B6A03F4F853B3F5106FD6D1BB7B002B01D0012300E0002355
S32D0000E9E000BF18463837BD4680BD00BF98150020040000200880D9FF80B58CB000AF03463A60FB710B46BB7141
S32D0000EA083A4BBB62FB79002B01D0042369E0012387F82F30364B1B78DBB203F00103002B14BF01230023DBB2F2
S32D0000EA30002B01D0032358E0BB79032B50D801A252F823F055EA00005DEA00006DEA00007DEA0000002387F8EE
S32D0000EA582F3044E0BB6A9A683B681A60002387F82F303CE03B684FF400721A80002387F82F3034E009233B72CC
S32D0000EA8000237B72BB6A1B69FB6000233B7400237B6107F10803194641F20230FFF70AFA0346002B14BF012357
S32D0000EAA80023DBB2002B01D001231AE07B6A03F44003002B0CD13B6A9B0C03F07F035A1C7B6A1B0A03F0030315
S32D0000EAD0013B9A403B681A60002387F82F3002E0042387F82F3097F82F3018463037BD4680BD00BF981500207E
S32D0000EAF80400002080B483B000AF0346FB71FB79002B01D0012302E0034B1B78DBB218460C37BD4680BC704786
S32D0000EB200400002080B483B000AF7860164B03F580539B6B144A43F0010302F580529363124A7B689360114BA1
S32D0000EB4805225A600F4B1B680E4A43F00103136000BF0C4B1B6803F08003002B0CBF01230023DBB2002BF4D116
S32D0000EB70064B1B68054A23F00103136000BF0C37BD4680BC704700BF007004400000044080B582B000AF78602D
S32D0000EB9839607B68012B07D13B684FF6FF72934202D1034800F00EF800BF0837BD4680BDB817002080B500AF7C
S32D0000EBC04FF6FF710120FFF7E3FF80BD80B483B000AF78607B6800221A707B6818460C37BD4680BC7047000045
S32D0000EBE880B582B000AF78607B681B7883F00103DBB2002B21D0134B03F580531A464FF400639362104B4FF4B9
S32D0000EC1040721A620E4B4FF440725A620D4B1B68DA0F13445B104FF4614219460A48FEF7FBFB642000F08AF8A0
S32D0000EC387B6801221A70012300E0002318460837BD4680BD0070044000D00440BC17002000B00E4080B582B0FA
S32D0000EC6000AF7860084611461A460346FB700B46BB7013467B707F210E48FEF7A8FC08210C48FEF7A4FCFB7872
S32D0000EC8819460A48FEF79FFCBB7819460748FEF79AFC7B7819460548FEF795FCFF210348FEF791FC00BF0837A1
S32D0000ECB0BD4680BD00B00E4080B487B000AFF860B9607A60FB681F4AA2FB03239B09BA6813447B61FB681B4A43
S32D0000ECD8A2FB031292094FF47A7101FB02F29B1AFB60FB68DB03154AA2FB03239B097A6813443B613B69DB0B2D
S32D0000ED007A6913447B613B69C3F30E033B6100BF0D4B1B687A699A4209D80B4B1B687A699A4206D1084B5B6809
S32D0000ED283A699A4201D9012300E00023002BEBD100BF00BF1C37BD4680BC7047D34D621000D0034080B584B081
S32D0000ED5000AF7860074B1B68FB60064B5B68BB607B68BA68F9681846FFF7A6FF00BF1037BD4680BD00D00340F7
S32D0000ED7880B584B000AFC7E900010E4B1B68FB600C4B5B68BB604FF000020B4BD7E9000102F084FD02460B46D4
S32D0000EDA01046194603F040F80346BA68F9681846FFF782FF00BF1037BD4680BD00D0034000408F4080B584B0F3
S32D0000EDC800AF78600B46FB700B23FB73FA7BFB781946786800F07CF87B6818461037BD4680BD000080B485B082
S32D0000EDF000AF78607B68103B002B00DA1F335B11FB60FB68022B43D0FB68022B5DDCFB68002B03D0FB68012BC6
S32D0000EE181DD056E02D4BD3F880317A68103A02F01F02012101FA02F21146284A0B43C2F88031264B1B687A680D
S32D0000EE40103A02F01F02012101FA02F21146214A0B43136039E01F4BD3F884317A68103A02F01F02012101FA54
S32D0000EE6802F21146194A0B43C2F88431174B5B687A68103A02F01F02012101FA02F21146124A0B4353601CE0EC
S32D0000EE90104BD3F888317A68103A02F01F02012101FA02F211460B4A0B43C2F88831094B9B687A68103A02F043
S32D0000EEB81F02012101FA02F21146044A0B43936000BF00BF1437BD4680BC704700E100E080B584B000AF7860A4
S32D0000EEE00B46FB701346BB707B68FA781A70BB78FB737B681B781A46574B9B5C042B00F2A68001A252F823F08E
S32D0000EF081DEF000069EF0000B5EF00004DF0000001F00000FB7B1B0403F470234D497A68127810464C4A52F84E
S32D0000EF30202043F4897343F0010341F82230494B5A697B681B781946454B53F8213003F01F03012101FA03F3FE
S32D0000EF58DB43424913404B616720FFF743FF72E0FB7B1B0403F470233D497A6812781046394A52F8202043F427
S32D0000EF80897343F0010341F82230384B5A697B681B781946324B53F8213003F01F03012101FA03F3DB433149B1
S32D0000EFA813404B616820FFF71DFF4CE0FB7B1B0403F470232C497A6812781046264A52F8202043F4897343F0C0
S32D0000EFD0010341F82230274B5A697B681B7819461F4B53F8213003F01F03012101FA03F3DB43204913404B61C6
S32D0000EFF86920FFF7F7FE26E0FB7B1B0403F470231B497A6812781046134A52F8202043F4897343F0010341F8A2
S32D0000F0202230164B5A697B681B7819460C4B53F8213003F01F03012101FA03F3DB430F4913404B616B20FFF766
S32D0000F048D1FE00E000BF00BF1037BD4680BD00BF982C010000900440DC2C010000F00F4000A0044040F00F40E3
S32D0000F07000B0044080F00F4000D0044000F10F40B0B48BB000AF224B3C1D1D460FCD0FC495E80F0084E80F003E
S32D0000F09800237B622FE01D4BD3F8A0207B6A9B0028333B4453F8243C012101FA03F31340002B14BF0123002398
S32D0000F0C0DBB2002B18D0144A7B6A52F823305A1C11497B6A41F823200E4BD3F8A0207B6A9B0028333B4453F8E8
S32D0000F0E8243C012101FA03F308491340C1F8A0307B6A01337B627B6A072BCCDD00BF00BF2C37BD46B0BC70479D
S32D0000F110E02D010000A00440E8170020B0B489B000AF224B3C1D1D460FCD0FC495E8030084E803000023FB612E
S32D0000F1382FE01D4BD3F8A020FB699B0020333B4453F81C3C012101FA03F31340002B14BF01230023DBB2002BD0
S32D0000F16018D0FB690833134A52F823200132114941F823200E4BD3F8A020FB699B0020333B4453F81C3C01218D
S32D0000F18801FA03F308491340C1F8A030FB690133FB61FB69052BCCDD00BF00BF2437BD46B0BC7047002E0100DC
S32D0000F1B000B00440E8170020B0B48DB000AF234B3C461D460FCD0FC40FCD0FC495E8070084E807000023FB62A6
S32D0000F1D82FE01D4BD3F8A020FB6A9B0030333B4453F8303C012101FA03F31340002B14BF01230023DBB2002B0B
S32D0000F20018D0FB6A0E33134A52F823200132114941F823200E4BD3F8A020FB6A9B0030333B4453F8303C0121C0
S32D0000F22801FA03F308491340C1F8A030FB6A0133FB62FB6A0A2BCCDD00BF00BF3437BD46B0BC7047182E01000B
S32D0000F25000900440E8170020B0B487B000AF214B3C461D460FCD0FC42B68236000237B612FE01D4BD3F8A0203C
S32D0000F2787B699B0018333B4453F8183C012101FA03F31340002B14BF01230023DBB2002B18D07B691933134AA8
S32D0000F2A052F823200132114941F823200E4BD3F8A0207B699B0018333B4453F8183C012101FA03F30849134027
S32D0000F2C8C1F8A0307B6901337B617B69042BCCDD00BF00BF1C37BD46B0BC7047442E010000D00440E817002042
S32D0000F2F080B483B000AF78607B681B781A46044B53F8223018460C37BD4680BC704700BFE817002080B483B064
S32D0000F31800AF78607B681B781946044B002243F8212000BF0C37BD4680BC7047E817002080B483B000AF786079
S32D0000F3400B46FB707B68FA781A707B6818460C37BD4680BC7047000080B586B000AF78607B681B781A46234B54
S32D0000F36853F822303B617B681B781A46204B9B5CFB733B69DBB203F01F03DAB21D4B1A723B69DBB203F01F038C
S32D0000F390DAB21A4B5A72FB7B002B13D11749184800F0D0F900BF164B1B6803F08003802B14BF01230023DBB229
S32D0000F3B8002BF4D1104B1B697B6112E00D490F4800F0BCF900BF0D4B1B6803F08003802B14BF01230023DBB2D6
S32D0000F3E0002BF4D1074B1B697B617B6918461837BD4680BD5C2D0100B82C0100D817002000B0034000B00B4020
S32D0000F40898B500AF204B5C221A701F4B10225A701D4B41F234225A801B4B45F278629A80194B10229A71184BA1
S32D0000F4300722DA71164B4FF4C022DA60144B1F221A72134B1F225A721149124800F07AF90F49114800F076F9BC
S32D0000F4580F4800F0D4F80D4800F0D1F80A490C4800F06CF90849094800F068F9094A064B14460FCB84E80F0023
S32D0000F480064B5C221A70054B0422DA7100BF98BDC817002000B0034000B00B40D817002080B500AF064B1B687C
S32D0000F4A80133054A136000F03DF8044B0122C3F80C2100BF80BD00BF6C1800200070034080B500AF0C4B012251
S32D0000F4D01A600C4800F01AF8094B0322C3F80821094BD3F88831084A43F01003C2F88831054B9B68044A43F02A
S32D0000F4F81003936000BF80BD00700340A086010000E100E080B483B000AF7860044A7B68C2F8003100BF0C373D
S32D0000F520BD4680BC704700BF0070034080B584B000AF184B1B68FB6023E0FB685B78FB71FB689B68184600F0A3
S32D0000F54827F80346BB71BB79002B13D0FB685B68012B0FDDFB689B681B69BB6007E0BB685B685A1CBB685A605C
S32D0000F570BB681B69BB60BB68002BF4D1FB68DB68FB60FB68002BD8D100BF00BF1037BD4680BD00BF68180020FC
S32D0000F59880B584B000AF78607868FFF7D9FEF8607B689B695B78FB72FB7A002B0FD17B68DB68FA689A420ADD5E
S32D0000F5C07B689B6901225A707B685B685A1C7B685A60012313E0FB7A012B0FD17B689B68FA689A420ADA7B680D
S32D0000F5E89B6900225A707B685B685A1C7B685A60012300E0002318461037BD4680BD80B485B000AF78607B686D
S32D0000F6101B6A23F040027B681A627B685B6A23F00B027B685A627B685B6A43F007027B685A627B685B6A43F0CE
S32D0000F63880027B685A6200BF7B681B6803F08003002B0CBF01230023DBB2002BF4D17B685B6A03F04003402BE5
S32D0000F6600CBF01230023DBB2002B01D0012364E00023FB817B68DB6CFB817B689B6C9AB2FB891344FB817B68C4
S32D0000F6885B6C9AB2FB891344FB817B681B6C9AB2FB891344FB817B68DB6B9AB2FB891344FB817B689B6B9AB2DC
S32D0000F6B0FB891344FB81FB895B08FB81FB896FEA43436FEA5343FB81FA897B68DA620023FB817B68DB6EFB81BB
S32D0000F6D87B689B6E9AB2FB891344FB817B685B6E9AB2FB891344FB817B681B6E9AB2FB891344FB817B68DB6DEC
S32D0000F7009AB2FB891344FB817B689B6D9AB2FB891344FB81FB895B08FB81FB896FEA43436FEA5343FB81FA89F6
S32D0000F7287B681A637B685B6A23F080027B685A62002318461437BD4680BC704780B483B000AF786039603B688B
S32D0000F7501B781A467B689A603B685B781A467B68DA603B685B881A467B689A613B689B881A467B68DA613B681D
S32D0000F7789B791A467B681A623B68DB791A467B685A623B68DA687B681A653B681B7A1A467B681A603B685B7AE6
S32D0000F7A01A467B685A6000BF0C37BD4680BC704780B483B000AF78607B6818460C37BD4680BC704780B582B077
S32D0000F7C800AF786039607B68012B07D13B684FF6FF72934202D10348FFF7E6FF00BF0837BD4680BD70180020FF
S32D0000F7F080B500AF4FF6FF710120FFF7E3FF80BD80B582B000AF7860B84B4FF48072DA60B74B4FF480729A6487
S32D0000F818B54B4FF480721A64B34B4FF480725A64B14B4FF48072DA60B04B5B69AF4A43F008035361AE4B5B694C
S32D0000F840AD4A43F480235361AB4B5B69AA4A43F480335361A84B5B69A74A43F400335361A54B1B68A44A43F06F
S32D0000F86808031360A24B5B69A14A43F0080353619E4B1B689D4A43F0080313609A4B4FF480725A62984B4FF466
S32D0000F89080721A62954B4FF480721A61934B4FF480725A61914B4FF480729A618F4B4FF48072DA618D4B4FF40D
S32D0000F8B880721A638B4B4FF480725A63894B4FF480729A63874B4FF48072DA63854B4FF480721A64834B4FF40D
S32D0000F8E080725A64814B4FF480729A647F4B4FF48072DA64814B4FF480721A607F4B4FF480729A607D4B4FF48F
S32D0000F9088072DA607B4B4FF480721A61784B5B69774A43F440735361744B5B69734A43F47F2343F0F003536156
S32D0000F930734B5B69724A43F01D035361E221786800F0FCFC1D21786800F09EFD0221786800F09AFD0421786861
S32D0000F95800F096FDE021786800F0ECFC0121786800F08EFD6420FFF7EDF9E021786800F0E1FC0321786800F0C6
S32D0000F98083FD0121786800F0D9FC0120FFF7DEF9E621786800F0D2FC0121786800F074FDA021786800F070FD1E
S32D0000F9A8FF21786800F06CFDB021786800F0C2FC1C21786800F064FD0F21786800F060FD0121786800F05CFD63
S32D0000F9D03F21786800F058FD0021786800F054FDEF21786800F050FD0021786800F04CFDB421786800F0A2FC98
S32D0000F9F80121786800F044FD9921786800F040FD0021786800F03CFD4521786800F038FD0221786800F034FD2E
S32D0000FA200021786800F030FD0021786800F02CFD0021786800F028FDB621786800F07EFC0121786800F020FD3A
S32D0000FA480921786800F01CFD0021786800F018FD0E21786800F014FD0221786800F010FD0021786800F00CFD6D
S32D0000FA700021786800F008FDBA21786800F05EFC0F21786800F000FD6420FFF75FF93A21786800F053FC6021A3
S32D0000FA98786800F0F5FC2A21786800F04BFC0021786800F0EDFC0021786800F0E9FC0121786800F0E5FC3F213A
S32D0000FAC0786800F0E1FC2B21786800F037FC0021786800F0D9FC0021786800F0D5FC0021786800F0D1FCEF21C6
S32D0000FAE878680BE000B0044000A0044080F00F4040F00F4000C00440C0F00F4000F0C0FC3621786800F016FC27
S32D0000FB100021786800F0B8FCF021786800F00EFC0421786800F0B0FCB821786800F006FC0F21786800F0A8FC47
S32D0000FB380121786800F0A4FC314B1B68304A43F0080313606420FFF7FDF83621786800F0F1FB0021786800F070
S32D0000FB6093FCF021786800F0E9FB0421786800F08BFC0121786800F0C0F91E226F21786800F082F8AF2256219A
S32D0000FB88786800F0DDF80021786800F003FA012301221C49786800F024FA2921786800F0C9FB6420FFF7CEF804
S32D0000FBB0BE21786800F0C2FB0E21786800F064FCF021786800F060FC0121786800F05CFC0021786800F058FC90
S32D0000FBD80021786800F054FC0F21786800F050FC786800F022FA0121786800F0D3F90021786800F0A8F900BF77
S32D0000FC000837BD4680BD00BF40F00F40582E010080B582B000AF78607B680022DA617B6801221A627B680E22CF
S32D0000FC285A607B681A229A607B6800225A617B6800229A617B684FF4A072DA607B68F0221A617B6800221A70AA
S32D0000FC50786801F041F87B6818460837BD4680BD80B582B000AF7860064B1B78002B05D1044B01221A7078680D
S32D0000FC78FFF7C2FD00BF0837BD4680BDB818002080B58AB002AFF860B9607A607E23009362237A68B968F868F4
S32D0000FCA000F07AFD40F24E733B610023FB613FE00023BB6131E0FB690133224AD35C002B06D1FF23FB75FF2369
S32D0000FCC8BB75FF237B7512E0FB6901331B4AD35C012B06D1D423FB750023BB7526237B7505E0B523FB75BA23AE
S32D0000FCF0BB75B0237B757B7DBA7DF97DF86800F0D7F80246FB68DA61F86800F0E5FFF86800F01EFFBB69013350
S32D0000FD18BB610A4AFB6913441B781A46BB699342C5DBFB690233FB61FA693B699A42BBDB00BF00BF2037BD46C0
S32D0000FD4080BD00BF0800002080B58AB002AFF860B9607A602723009395237A68B968F86800F01AFD40F2E633BC
S32D0000FD683B610023FB613FE00023BB6131E0FB690133224AD35C002B06D1FF23FB75FF23BB75FF237B7512E0C6
S32D0000FD90FB6901331B4AD35C012B06D10023FB750023BB7500237B7505E0D423FB750023BB7526237B757B7D4D
S32D0000FDB8BA7DF97DF86800F077F80246FB68DA61F86800F085FFF86800F0BEFEBB690133BB610A4AFB69134468
S32D0000FDE01B781A46BB699342C5DBFB690233FB61FA693B699A42BBDB00BF00BF2037BD4680BD00BF58070020A8
S32D0000FE0880B485B000AF78600B46FB70FB78062B29D801A252F823F045FE00003DFE00004BFE000053FE000063
S32D0000FE305BFE000061FE000069FE00006FF07F43FB6014E00023FB6011E04FF47F03FB600DE04FF47F43FB6039
S32D0000FE5809E0FF23FB6006E04FF41903FB6002E0044BFB6000BFFB6818461437BD4680BC704700BF999999009F
S32D0000FE8080B584B000AF786039603B681B0CFB733B681B0ABB733B687B737B7BBA7BF97B786800F005F8034657
S32D0000FEA818461037BD4680BD80B487B000AF7860084611461A460346FB700B46BB7013467B70FB789B08DBB239
S32D0000FED07B61BB789B08DBB23B617B789B08DBB2FB607B691A033B699B011A43FB68134318461C37BD4680BC64
S32D0000FEF8704780B582B000AF78600B46FB70FB7819467868FFF77CFF03461946786800F004F800BF0837BD46E3
S32D0000FF2080BD80B582B000AF7860396039687868FFF7A6FF02467B681A62786800F0CCFE786800F039FB00BFCF
S32D0000FF480837BD4680BD80B582B000AF78600B46FB70FB7819467868FFF752FF03461946786800F004F800BF36
S32D0000FF700837BD4680BD80B582B000AF7860396039687868FFF77CFF02467B681A62786800F0A2FE00BF083756
S32D0000FF98BD4680BD80B582B000AF78600B46FB70FB7819467868FFF72BFF03461946786800F004F800BF08370D
S32D0000FFC0BD4680BD80B582B000AF7860396039687868FFF755FF02467B68DA61786800F07BFE00BF0837BD46D1
S32D0000FFE880BD80B586B000AFF860B9607A603B6000237B610EE07B69BA6813441B783A687968F86800F05EFCA4
S32D000100107B680C337B607B6901337B617B69BA6813441B78002BEAD100BF00BF1837BD4680BD80B582B000AFD7
S32D000100387860FDF7A5F967210120FDF70EF900210220FDF70AF9A0210320FDF706F950210420FDF702F92021B5
S32D000100600520FDF7FEF820210620FDF7FAF877210720FDF7F6F800210820FDF7F2F800210920FDF7EEF8002108
S32D000100880A20FDF7EAF804210B20FDF7E6F87B684FF0FF32DA637B684FF0FF321A6400BF0837BD4680BD000088
S32D000100B080B586B000AFF860B9607A600020FDF7F2F80346FB75FB7D03F00203002B00F0CC80FDF705F9E0203C
S32D000100D8FDF7B6F80220FEF735FEFDF70BF90120FEF730FEFDF7F8F8A520FDF7A9F80120FEF728FEFDF7CBF8A0
S32D0001010003461B02BB82FDF7C6F803461A46BB8A1343BB82FDF7BFF803461B027B82FDF7BAF803461A467B8A98
S32D0001012813437B82BB8A1B09BB827B8A1B097B82FDF7E0F8FB68DB6BB3F1FF3F34D1FB681B6CB3F1FF3F2FD161
S32D00010150BA8AFB68DA637A8AFB681A647B8AC3F57F630F337B82BB8A184601F031FB48A3D3E9002301F096FBCD
S32D0001017802460B461046194601F072FE0246BB681A607B8A184601F01FFB41A3D3E9002301F084FB02460B468A
S32D000101A01046194601F060FE02467B681A605AE0FB68DA6BBB8AD31A1946F86800F072F80346632B0CDCFB6838
S32D000101C81A6C7B8AD31A1946F86800F067F80346632B01DC012300E00023002B2FD0BA8AFB68DA637A8AFB6832
S32D000101F01A647B8AC3F57F630F337B82BB8A184601F0E6FA22A3D3E9002301F04BFB02460B461046194601F0F6
S32D0001021827FE0246BB681A607B8A184601F0D4FA1BA3D3E9002301F039FB02460B461046194601F015FE02462F
S32D000102407B681A600FE0BB68154A1A607B68144A1A60FB684FF0FF32DA63FB684FF0FF321A64002310E00123F4
S32D000102680EE0BB680C4A1A607B680B4A1A60FB684FF0FF32DA63FB684FF0FF321A64002318461837BD4680BD63
S32D00010290144001144001B43F1EE0011EE001AE3F000080BF80B483B000AF786039603B68002B02DA3B685B4207
S32D000102B83B603B6818460C37BD4680BC704780B584B000AF786039600023FB60786800F032FA11E07B685969A9
S32D000102E07B689869FB683A6813441B780246786800F0D1FA786800F036FAFB680133FB60FB683A6813441B7858
S32D00010308002BE7D100BF00BF1037BD4680BD80B582B000AF78603960786800F00CFA39687868FFF7CCFF78685F
S32D0001033000F0F0F900BF0837BD4680BD80B483B000AF78600B46FB704D4B1B684C4A23F0080313604B4B1B6882
S32D000103584A4A23F480231360484B1B68474A43F480331360454B1B68444A23F440731360414B1B68404A23F423
S32D00010380435323F0300313603E4B1A68FB785B0203F400733B4913430B603A4B1A68FB785B101B0203F4807389
S32D000103A8364913430B60344B1A68FB789B101B0103F01003304913430B602F4B1A68FB78DB105B0103F020039F
S32D000103D02B4913430B602A4B1A68FB781B119B0103F04003264913430B60254B1A68FB785B11DB01DBB222498C
S32D000103F813430B60204B1A68FB789B111B0303F480531D4913430B601B4B1A6897F90330DB115BB25B0303F401
S32D000104200053174913430B60164B1B68154A23F400331360134B1B68124A43F4003313600F4B1B680E4A43F0B7
S32D00010448080313600D4B1B680C4A43F440731360094B1B68084A43F4435343F030031360064B1B68054A43F450
S32D000104708023136000BF0C37BD4680BC704700BF80F00F4040F00F4080B483B000AF78600B46FB70464B1B6894
S32D00010498454A23F008031360444B1B68434A43F480331360414B1B68404A43F4802313603E4B1B683D4A23F489
S32D000104C0407313603A4B1B68394A23F4435323F030031360374B1A68FB785B0203F40073344913430B60334BFC
S32D000104E81A68FB785B101B0203F480732F4913430B602D4B1A68FB789B101B0103F01003294913430B60284B65
S32D000105101A68FB78DB105B0103F02003244913430B60234B1A68FB781B119B0103F040031F4913430B601E4B49
S32D000105381A68FB785B11DB01DBB21B4913430B60194B1A68FB789B111B0303F48053164913430B60144B1A68B7
S32D0001056097F90330DB115BB25B0303F40053104913430B600F4B1B680E4A23F4003313600C4B1B680B4A43F496
S32D0001058800331360084B1B68074A43F008031360064B1B68054A23F48023136000BF0C37BD4680BC704700BFBF
S32D000105B080F00F4040F00F4080B586B000AF78607B6800225A617B6800229A617B681B6AFB60FB68FB72FB6836
S32D000105D81B0ABB72FB681B0CDBB203F003037B722A217868FFF7A6FE00217868FFF748FF00217868FFF744FF68
S32D0001060001217868FFF740FF3F217868FFF73CFF2B217868FFF792FE00217868FFF734FF00217868FFF730FF21
S32D0001062800217868FFF72CFFEF217868FFF728FF2C217868FFF77EFE314B1B68304A23F4407313602F4B1B6822
S32D000106502E4A23F47F2323F0F00313602C4B1B682B4A23F01D031360274B1A687B681B6B254913430B60254BC0
S32D000106781A687B685B6B234913430B60224B1A687B689B6B204913430B601E4B1B681D4A23F0080313601A4BB0
S32D000106A01B68194A43F48023136000237B6118E000233B610EE0144B1B68134A23F400331360114B1B68104A1F
S32D000106C843F4003313603B6901333B613B69B3F5A07FECD37B6901337B617B69EF2BE3D9084B1B68074A43F080
S32D000106F008031360044B1B68034A23F48023136000BF1837BD4680BD40F00F4080F00F40C0F00F4080B483B01F
S32D0001071800AF78607B689B69002B07DD7B685B695A1C7B685A617B6800229A6100BF0C37BD4680BC704780B54D
S32D0001074082B000AF78607B685A697B685B689A4205DB7B6800225A617868FFF72DFF00BF0837BD4680BD80B594
S32D0001076882B000AF78607B689B695A1C7B689A617B689A697B689B689A4205D17868FFF7C5FF7868FFF7D7FFAA
S32D0001079000BF0837BD4680BD80B588B000AFF860B9607A603B60FB681B78022B03D0FB681B78032B11D17B681B
S32D000107B8FB61BA6AFB691344013BBB61FB68DA68BB68D31A3B613B683A69D31A01337B610DE0BB68FB613A68DD
S32D000107E0FB691344013BBB617B687B61BA6A7B691344013B3B612A21F868FFF79FFDFB691B0ADBB203F00F0389
S32D00010808DBB21946F868FFF73BFEFB69DBB21946F868FFF735FEBB691B0ADBB203F00F03DBB21946F868FFF750
S32D000108302BFEBB69DBB21946F868FFF725FE2B21F868FFF77BFD7B691B0ADBB203F00F03DBB21946F868FFF7F0
S32D0001085817FE7B69DBB21946F868FFF711FE3B691B0ADBB203F00F03DBB21946F868FFF707FE3B69DBB21946F5
S32D00010880F868FFF701FE2C21F868FFF757FD00BF2037BD4680BD80B584B000AFF860B9607A60FB707A6813469E
S32D000108A85B0013449B00991CBA6813461B011344DA1CFB78F86800F005F800BF1037BD4680BD000080B58EB0C2
S32D000108D002AFF860B9607A60FB70FB780A2B06D1F868FFF72CFFF868FFF714FFF2E0FB787D2B02D8FB781F2BA5
S32D000108F801D82023FB70FB78203BFB70112300930C237A68B968F868FFF742FFFA7813469B0013446F4AD35CDC
S32D000109203B75FA7813469B00134401336B4AD35C7B75FA7813469B0013440233674AD35CBB75FA7813469B00CB
S32D0001094813440333634AD35CFB75FA7813469B00134404335F4AD35C3B760023BB629FE0F86800F053F9F8686F
S32D0001097000F0B6F8002387F82F3000237B6234E007F114027B6A13441B7803F00103002B14BF01230023BB765B
S32D00010998BB7E002B11D097F82F3083F00103DBB2002B03D0F86800F0CFF802E0F86800F093F8F86800F090F84F
S32D000109C00DE097F82F30002B03D0F86800F022F902E0F86800F084F8F86800F081F8BB7E87F82F307B6A01331D
S32D000109E87B627B6A042BC7DD97F82F30002B03D0F86800F00BF902E0F86800F06DF8F86800F06AF8002387F820
S32D00010A102F3000233B6241E007F114023B6A13441B7803F00103002B14BF01230023FB76FB7E002B11D097F819
S32D00010A382F3083F00103DBB2002B03D0F86800F083F802E0F86800F047F8F86800F044F80DE097F82F30002B60
S32D00010A6003D0F86800F0D6F802E0F86800F038F8F86800F035F8FB7E87F82F3007F114023B6A13441B785B0840
S32D00010A88D9B207F114023B6A13440A461A703B6A01333B623B6A042BBADDBB6A0133BB62BB6A062B7FF75CAFA2
S32D00010AB0F86800F0AFF8002387F82F300123FB6105E0F86800F00CF8FB690133FB61FB69232BF6DD3037BD4683
S32D00010AD880BD00BF400B002080B483B000AF7860174B1B68164A43F480331360154B1B68144A23F00803136026
S32D00010B00114B1B68104A43F4802313600E4B1B680D4A23F4003313600B4B1B680A4A43F400331360094B1B686F
S32D00010B28084A43F008031360054B1B68044A23F48023136000BF0C37BD4680BC704700BF40F00F4080F00F4058
S32D00010B5080B483B000AF78602B4B1B682A4A43F480331360294B1B68284A23F008031360254B1B68244A43F42C
S32D00010B7880231360224B1B68214A23F440731360204B1B681F4A23F47F2323F0F00313601D4B1B681C4A23F0B3
S32D00010BA01D031360184B1A687B685B6A164913430B60164B1A687B689B6A144913430B60134B1A687B68DB6AF5
S32D00010BC8114913430B600E4B1B680D4A23F4003313600B4B1B680A4A43F400331360094B1B68084A43F0080382
S32D00010BF01360054B1B68044A23F48023136000BF0C37BD4680BC704740F00F4080F00F40C0F00F4080B483B079
S32D00010C1800AF78602B4B1B682A4A43F480331360294B1B68284A23F008031360254B1B68244A43F480231360B4
S32D00010C40224B1B68214A23F440731360204B1B681F4A23F47F2323F0F00313601D4B1B681C4A23F01D0313606D
S32D00010C68184B1A687B681B6B164913430B60164B1A687B685B6B144913430B60134B1A687B689B6B11491343CC
S32D00010C900B600E4B1B680D4A23F4003313600B4B1B680A4A43F400331360094B1B68084A43F008031360054BA6
S32D00010CB81B68044A23F48023136000BF0C37BD4680BC704740F00F4080F00F40C0F00F4080B485B000AF7860EA
S32D00010CE07B681B6AFB60FB68FB72FB681B0ABB72FB681B0CDBB203F003037B727B6800225A627B6800229A62DE
S32D00010D087B680022DA627B6800221A637B6800225A637B6800229A637B681A6BFB7A5B0203F400731A437B6851
S32D00010D301A637B681A6BFB7A5B101B0203F480731A437B681A637B685A6BFB7A9B101B0103F010031A437B68E1
S32D00010D585A637B685A6BFB7ADB105B0103F020031A437B685A637B685A6BFB7A1B119B0103F040031A437B68DD
S32D00010D805A637B685A6BFB7A5B11DB01DBB21A437B685A637B685A6BFB7A9B111B0303F480531A437B685A63EA
S32D00010DA87B685A6B97F90B30DB115BB25B0303F400531A437B685A637B685A6BBB7A9B0303F480431A437B6896
S32D00010DD05A637B685A6BBB7A5B10DB039BB21A437B685A637B685A6BBB7A9B101B0403F480331A437B685A6379
S32D00010DF87B685A6BBB7ADB105B0403F400331A437B685A637B685A6BBB7A1B119B0403F480231A437B685A633F
S32D00010E207B685A6BBB7A5B11DB0403F400231A437B685A637B689A6BBB7A9B1103F001031A437B689A637B6884
S32D00010E489A6B97F90A30DB115BB29B0003F004031A437B689A637B689A6B7B7ADB0003F008031A437B689A63EE
S32D00010E707B689A6B7B7A5B101B0103F010031A437B689A637B68DB69FB60FB68FB72FB681B0ABB72FB681B0C1B
S32D00010E98DBB203F003037B727B685A6AFB7A5B0203F400731A437B685A627B685A6AFB7A5B101B0203F480734B
S32D00010EC01A437B685A627B689A6AFB7A9B101B0103F010031A437B689A627B689A6AFB7ADB105B0103F02003E9
S32D00010EE81A437B689A627B689A6AFB7A1B119B0103F040031A437B689A627B689A6AFB7A5B11DB01DBB21A437B
S32D00010F107B689A627B689A6AFB7A9B111B0303F480531A437B689A627B689A6A97F90B30DB115BB25B0303F4A7
S32D00010F3800531A437B689A627B689A6ABB7A9B0303F480431A437B689A627B689A6ABB7A5B10DB039BB21A433C
S32D00010F607B689A627B689A6ABB7A9B101B0403F480331A437B689A627B689A6ABB7ADB105B0403F400331A43CA
S32D00010F887B689A627B689A6ABB7A1B119B0403F480231A437B689A627B689A6ABB7A5B11DB0403F400231A43C0
S32D00010FB07B689A627B68DA6ABB7A9B1103F001031A437B68DA627B68DA6A97F90A30DB115BB29B0003F0040339
S32D00010FD81A437B68DA627B68DA6A7B7ADB0003F008031A437B68DA627B68DA6A7B7A5B101B0103F010031A43F7
S32D000110007B68DA6200BF1437BD4680BC7047000080B582B000AF786039607B68012B07D13B684FF6FF72934206
S32D0001102802D10348FEF7F0FD00BF0837BD4680BD7418002080B500AF4FF6FF710120FFF7E3FF80BD80B582B079
S32D0001105000AF7860164B03F580535B6B144A43F0400302F580525363124B4FF400725A62104B4FF400721A624B
S32D000110780F4B14225A700E4B1B7ADBB20C4A43F00103DBB213720A4B80229A7002212B20FCF76CF83D212A2067
S32D000110A0FCF768F87B6818460837BD4680BD00BF0070044000C004400060064080B582B000AF786039607B6887
S32D000110C8012B07D13B684FF6FF72934202D10348FFF7B8FF00BF0837BD4680BDBC18002080B500AF4FF6FF7131
S32D000110F00120FFF7E3FF80BD80B582B000AF78600B46FB707B68FA7811461846FEF714F97B6818460837BD4662
S32D0001111880BD000080B582B000AF786039607B68012B08D13B684FF6FF72934203D120210348FFF7DDFF00BFDD
S32D000111400837BD4680BD00BFC018002080B500AF4FF6FF710120FFF7E1FF80BD80B483B000AF78607B6800228A
S32D000111681A707B6818460C37BD4680BC7047000080B483B000AF78603960044A3B68136000BF0C37BD4680BC28
S32D00011190704700BFC418002080B582B000AF3248FCF7FCF90346FB71304AFB791370304B01221A702F4B1B78EB
S32D000111B8022B33D0022B4FDC002B02D0012B14D04AE0FB79FF2B44D1284B01221A70284B00221A70F979264B74
S32D000111E01B785A1CD0B2244A10701A46234B995433E0F979204B1B785A1CD0B21E4A10701A461E4B99541C4B2C
S32D000112081B780D2B27D11C4B1B68194A1278114618489847154B02221A701CE0FB79FF2B10D1124B01221A70F4
S32D00011230114B00221A70F9790F4B1B785A1CD0B20D4A10701A460D4B995409E00A4B00221A70084B00221A70CB
S32D0001125802E000BF00E000BF00BF0837BD4680BD00A00640DB180020DA180020D9180020D8180020C8180020BD
S32D00011280C418002080B582B000AF78607B681846FFF764FF7B6811491846FFF76DFF7B684FF0FF325A600E4B58
S32D000112A84FF000021A600D4B4FF000021A600C4B4FF000021A600B4B00221A600A4B00221A700A4B00221A7043
S32D000112D07B6818460837BD4680BD00BFF9120100E8180020EC180020F0180020F4180020F8180020F91800206B
S32D000112F880B582B000AF78600B46FB701D4B1B78002B32D07B6801331B781A067B6802331B781B041A437B6821
S32D0001132003331B781B0213437A680432127813431A46134B1A607B685A79124B1A707B6806331B78AA2B0CBF46
S32D0001134801230023DAB20E4B1A700E4B01221A700B4B1B78002B08D00B4800F049F80B4B1B680A4A23F40053B3
S32D00011370136000BF0837BD4680BD00BFE4180020F4180020F8180020F9180020FA180020FC180020C0F00F40D0
S32D0001139880B582B000AF786039607B68012B07D13B684FF6FF72934202D10348FFF766FF00BF0837BD4680BDD3
S32D000113C0DC18002080B500AF4FF6FF710120FFF7E3FF80BD80B483B000AF7860054B00221A60044B00225A6016
S32D000113E87B6818460C37BD4680BC7047FC18002080B584B000AF7860154B1B68002B21D00023FB6013E0134A6B
S32D00011410FB6852F82330002B0AD0104AFB6852F823301846FCF703FB03461A460C4B1A70FB680133FB60084B30
S32D000114385B68FA689A42E6DB054B00225A60044B00221A60044B1B7818461037BD4680BDFC1800200819002070
S32D000114600419002080B582B000AF786039607B68012B07D13B684FF6FF72934202D10348FFF7A8FF00BF0837CB
S32D00011488BD4680BDFC18002080B500AF4FF6FF710120FFF7E3FF80BD80B483B000AF78600A4B03F580531B6B5E
S32D000114B0084A43F0010302F580521363064B5B68054A43F03203536000BF0C37BD4680BC704700BF007004405C
S32D000114D800000A4038B5084C4FF41E652846E56000F0DAFEA06020B10023C0E90053606038BDE060FBE700BF93
S32D0001150070190020704700BF024A0349034800F007B800BF00000020051501008019002003460846194600F072
S32D0001152879BE00BF81F0004102E000BF83F0004330B54FEA41044FEA430594EA050F08BF90EA020F1FBF54EAB1
S32D00011550000C55EA020C7FEA645C7FEA655C00F0E2804FEA5454D4EB5555B8BF6D420CDD2C4480EA020281EACC
S32D00011578030382EA000083EA010180EA020281EA0303362D88BF30BD11F0004F4FEA01314FF4801C4CEA1131DB
S32D000115A002D0404261EB410113F0004F4FEA03334CEA133302D0524263EB430394EA050F00F0A780A4F10104C0
S32D000115C8D5F1200E0DDB02FA0EFC22FA05F2801841F1000103FA0EF2801843FA05F359410EE0A5F120050EF128
S32D000115F0200E012A03FA0EFC28BF4CF0020C43FA05F3C01851EBE37101F0004507D54FF0000EDCF1000C7EEBFD
S32D0001161800006EEB0101B1F5801F1BD3B1F5001F0CD349085FEA30004FEA3C0C04F101044FEA445212F5800FC7
S32D0001164080F09A80BCF1004F08BF5FEA500C50F1000041EB045141EA050130BD5FEA4C0C404141EB0101013C1C
S32D0001166828BFB1F5801FE9D291F0000F04BF01460020B1FA81F308BF2033A3F10B03B3F120020CDA0C3208DD08
S32D0001169002F1140CC2F10C0201FA0CF021FA02F10CE002F11402D8BFC2F1200C01FA02F120FA0CFCDCBF41EA11
S32D000116B80C019040E41AA2BF01EB0451294330BD6FEA04041F3C1CDA0C340EDC04F11404C4F1200220FA04F05F
S32D000116E001FA02F340EA030021FA04F345EA030130BDC4F10C04C4F1200220FA02F001FA04F340EA0300294656
S32D0001170830BD21FA04F0294630BD94F0000F83F4801306BF81F480110134013D4EE77FEA645C18BF7FEA655C20
S32D0001173029D094EA050F08BF90EA020F05D054EA000C04BF1946104630BD91EA030F1EBF0021002030BD5FEA48
S32D00011758545C05D14000494128BF41F0004130BD14F580043CBF01F5801130BD01F0004545F0FE4141F4700180
S32D000117804FF0000030BD7FEA645C1ABF194610467FEA655C1CBF0B46024650EA013406BF52EA033591EA030F84
S32D000117A841F4002130BD00BF90F0000F04BF0021704730B54FF4806404F132044FF000054FF0000150E700BF35
S32D000117D090F0000F04BF0021704730B54FF4806404F1320410F0004548BF40424FF000013EE700BF42004FEA1C
S32D000117F8E2014FEA31014FEA02701FBF12F07F4393F07F4F81F06051704732F07F4208BF704793F07F4F04BF88
S32D0001182041F40021704730B54FF4607401F0004521F000411CE700BF50EA010208BF704730B54FF000050AE078
S32D0001184850EA010208BF704730B511F0004502D5404261EB41014FF4806404F132045FEA915C3FF4D8AE4FF024
S32D0001187003025FEADC0C18BF03325FEADC0C18BF033202EBDC02C2F1200300FA03FC20FA02F001FA03FE40EAFE
S32D000118980E0021FA02F11444BDE600BF70B54FF0FF0C4CF4E06C1CEA11541DBF1CEA135594EA0C0F95EA0C0F68
S32D000118C000F0DEF82C4481EA030621EA4C5123EA4C5350EA013518BF52EA033541F4801143F4801338D0A0FB0D
S32D000118E802CE4FF00005E1FB02E506F00042E0FB03E54FF00006E1FB03569CF0000F18BF4EF0010EA4F1FF042E
S32D00011910B6F5007F64F5407404D25FEA4E0E6D4146EB060642EAC62141EA55514FEAC52040EA5E504FEACE2EFC
S32D00011938B4F1FD0C88BFBCF5E06F1ED8BEF1004F08BF5FEA500E50F1000041EB045170BD06F0004646EA0101CC
S32D0001196040EA020081EA0301B4EB5C04C2BFD4EB0C0541EA045170BD41F480114FF0000E013C00F3AB8014F14D
S32D00011988360FDEBF002001F0004170BDC4F10004203C35DA0C341BDC04F11404C4F1200500FA05F320FA04F08D
S32D000119B001FA05F240EA020001F0004221F0004110EBD37021FA04F642EB06015EEA430E08BF20EAD37070BD04
S32D000119D8C4F10C04C4F1200500FA04F320FA05F001FA04F240EA020001F0004110EBD37041F100015EEA430EE8
S32D00011A0008BF20EAD37070BDC4F1200500FA05F24EEA020E20FA04F301FA05F243EA020321FA04F001F00041ED
S32D00011A2821FA04F220EA020000EBD3705EEA430E08BF20EAD37070BD94F0000F0FD101F00046400041EB010152
S32D00011A5011F4801F08BF013CF7D041EA060195F0000F18BF704703F00046520043EB030313F4801F08BF013D3A
S32D00011A78F7D043EA0603704794EA0C0F0CEA135518BF95EA0C0F0CD050EA410618BF52EA4306D1D181EA030159
S32D00011AA001F000414FF0000070BD50EA410606BF1046194652EA430619D094EA0C0F02D150EA013613D195EAD0
S32D00011AC80C0F05D152EA03361CBF104619460AD181EA030101F0004141F0FE4141F470014FF0000070BD41F0CA
S32D00011AF0FE4141F4780170BD70B54FF0FF0C4CF4E06C1CEA11541DBF1CEA135594EA0C0F95EA0C0F00F0A7F83B
S32D00011B18A4EB050481EA030E52EA03354FEA013100F088804FEA03334FF0805545EA131343EA12634FEA0222DC
S32D00011B4045EA111545EA10654FEA00260EF000419D4208BF964244F1FD0404F5407402D25B084FEA3202B61A0A
S32D00011B6865EB03055B084FEA32024FF480104FF4002CB6EB020E75EB030E22BFB61A754640EA0C005B084FEA84
S32D00011B903202B6EB020E75EB030E22BFB61A754640EA5C005B084FEA3202B6EB020E75EB030E22BFB61A754680
S32D00011BB840EA9C005B084FEA3202B6EB020E75EB030E22BFB61A754640EADC0055EA060E18D04FEA051545EA17
S32D00011BE016754FEA06164FEAC30343EA52734FEAC2025FEA1C1CC0D111F4801F0BD141EA00014FF000004FF0CC
S32D00011C08004CB6E711F4801F04BF01430020B4F1FD0C88BFBCF5E06F3FF6AFAEB5EB030C04BFB6EB020C5FEA08
S32D00011C30500C50F1000041EB045170BD0EF0004E4EEA113114EB5C04C2BFD4EB0C0541EA045170BD41F4801151
S32D00011C584FF0000E013C90E645EA060E8DE60CEA135594EA0C0F08BF95EA0C0F3FF43BAF94EA0C0F0AD150EA84
S32D00011C8001347FF434AF95EA0C0F7FF425AF104619462CE795EA0C0F06D152EA03353FF4FDAE1046194622E780
S32D00011CA850EA410618BF52EA43067FF4C5AE50EA41047FF40DAF52EA43057FF4EBAE12E74FF0FF3C06E000BFF4
S32D00011CD04FF0010C02E000BF4FF0010C4DF804CD4FEA410C7FEA6C5C4FEA430C18BF7FEA6C5C1BD001B050EA79
S32D00011CF8410C0CBF52EA430C91EA030F02BF90EA020F0020704710F1000F91EA030F58BF994208BF90422CBF57
S32D00011D20D8176FEAE37040F0010070474FEA410C7FEA6C5C02D150EA013C07D14FEA430C7FEA6C5CD6D152EA9C
S32D00011D48033CD3D05DF8040B704700BF8446104662468C461946634600E000BF01B5FFF7B7FF002848BF10F1DD
S32D00011D70000F01BD4DF808EDFFF7F4FF0CBF012000205DF808FB00BF4DF808EDFFF7EAFF34BF012000205DF88F
S32D00011D9808FB00BF4DF808EDFFF7E0FF94BF012000205DF808FB00BF4DF808EDFFF7CEFF94BF012000205DF8BA
S32D00011DC008FB00BF4DF808EDFFF7C4FF34BF012000205DF808FB00BF4FEA410212F5001215D211D56FF4787344
S32D00011DE8B3EB625212D94FEAC12343F0004343EA505311F0004F23FA02F018BF404270474FF00000704750EA8D
S32D00011E10013005D111F0004008BF6FF0004070474FF00000704700BF4A0011D212F5001211D20DD56FF4787330
S32D00011E38B3EB62520ED44FEAC12343F0004343EA505323FA02F070474FF00000704750EA013002D14FF0FF307C
S32D00011E6070474FF0000070474FEA4102B2F1E04324BFB3F5001CDCF1FE5C0DD901F0004C4FEAC0024CEA507082
S32D00011E88B2F1004F40EB830008BF20F00100704711F0804F21D113F13872BCBF01F00040704741F480114FEA2A
S32D00011EB05252C2F11802C2F1200C10FA0CF320FA02F018BF40F001004FEAC1234FEAD32303FA0CFC40EA0C000F
S32D00011ED823FA02F34FEA4303CCE77FEA625307D150EA01331EBF4FF0FE4040F44000704701F0004040F0FE400F
S32D00011F0040F40000704700BF80F0004002E000BF81F0004142001FBF5FEA410392EA030F7FEA226C7FEA236CDB
S32D00011F286AD04FEA1262D2EB1363C1BFD218414048404140B8BF5B42192B88BF704710F0004F40F4000020F093
S32D00011F507F4018BF404211F0004F41F4000121F07F4118BF494292EA030F3FD0A2F1010241FA03FC10EB0C001D
S32D00011F78C3F1200301FA03F100F0004302D5494260EB4000B0F5000F13D3B0F1807F06D340084FEA310102F19B
S32D00011FA00102FE2A51D2B1F1004F40EBC25008BF20F0010040EA03007047490040EB0000013A28BFB0F5000F90
S32D00011FC8EDD2B0FA80FCACF1080CB2EB0C0200FA0CF0AABF00EBC25052421843BCBFD0401843704792F0000F30
S32D00011FF081F4000106BF80F400000132013BB5E74FEA41037FEA226C18BF7FEA236C21D092EA030F04D092F0F0
S32D00012018000F08BF0846704790EA010F1CBF0020704712F07F4F04D1400028BF40F00040704712F100723CBF1F
S32D0001204000F50000704700F0004343F0FE4040F4000070477FEA226216BF08467FEA23630146420206BF5FEA9E
S32D00012068412390EA010F40F4800070474FF0000304E000BF10F0004348BF40425FEA000C08BF704743F0964360
S32D0001209001464FF000001CE050EA010208BF70474FF000030AE000BF50EA010208BF704711F0004302D54042A1
S32D000120B861EB41015FEA010C02BF84460146002043F0B64308BFA3F18053A3F50003BCFA8CF2083AA3EBC25315
S32D000120E010DB01FA02FC634400FA02FCC2F12002BCF1004F20FA02F243EB020008BF20F00100704702F120029B
S32D0001210801FA02FCC2F1200250EA4C0021FA02F243EB020008BF20EADC7070474FF0FF3C06E000BF4FF0010CD6
S32D0001213002E000BF4FF0010C4DF804CD4FEA40024FEA41037FEA226C18BF7FEA236C11D001B052EA530C18BFBB
S32D0001215890EA010F58BFB2EB030088BFC81738BF6FEAE17018BF40F0010070477FEA226C02D15FEA402C05D13C
S32D000121807FEA236CE4D15FEA412CE1D05DF8040B704700BF844608466146FFE70FB5FFF7C9FF002848BF10F1EB
S32D000121A8000F0FBD4DF808EDFFF7F4FF0CBF012000205DF808FB00BF4DF808EDFFF7EAFF34BF012000205DF845
S32D000121D008FB00BF4DF808EDFFF7E0FF94BF012000205DF808FB00BF4DF808EDFFF7D2FF94BF012000205DF87A
S32D000121F808FB00BF4DF808EDFFF7C8FF34BF012000205DF808FB00BF002301461A46184600F004BB13460A4634
S32D000122200146022000F0FEBA38B5074D074C2C1BA41005D0013C55F8043D9847002CF9D1BDE8384000F042BE6D
S32D00012248000000000000000070B50F4B0F4DAB42A3EB050607D0B610002455F8043B01349847A642F9D800F0FC
S32D000122700FFE094D094B5E1BAB424FEAA60606D0002455F8043B01349847A642F9D870BD9C2E01009C2E010027
S32D000122989C2E0100CC2E0100024B0146186800F00BB800BF200D0020024B0146186800F041BB00BF200D002072
S32D000122C02DE9F04F01F10B05162D83B0064624D8102900F2BD8000F08FFA102518220220B84F3A44A2F1080147
S32D000122E853688B4200F00B815A68D96822F003021A449C68E1608C60516841F001013046516003F1080400F017
S32D0001231075FA204603B0BDE8F08F35F0070500F19780A94200F2948000F066FAB5F5FC7FC0F043816B0A00F07A
S32D000123388F80042B00F20E81AB0903F1390003F1380CC3009D4F3B44A3F108045B689C4206D10CE0002980F2D1
S32D00012360CF80DB689C4206D05A6822F00302511B0F29F3DD6046DFF850C23C69644500F0AD80626822F00302E0
S32D00012388531B0F2B00F32081002BC7E904CC80F20681B2F5007F80F0B880D308796801334FEA521E012202FAC0
S32D000123B00EF20A4357F833E0C4F808E007EBC3010839E1607A6047F83340CEF80C40831001219940914245D857
S32D000123D8114206D120F003004900114200F10400FAD007EBC0094C468646D4F80C80444508D1BBE0002B80F233
S32D00012400C280D8F80C80444500F0B480D8F8042022F00302531B0F2BF0DD3046D8E9026408EB050145F0010511
S32D00012428C8F80450F460A66043F00104C7E904114C60C1F808C0C1F80CC048F8023000F0D9F908F1080460E7E8
S32D000124500C23336000245CE74FF4007340204FF03F0C73E7BC68636823F00309A94503D3A9EB05020F2A33DC85
S32D00012478DFF85081D7F80814D8F80020013105EB020304EB090B00F0468103F580530F3323F47F6323F00F03A6
S32D000124A019463046009300F0ABF9B0F1FF3F009B824605D0834540F2A480BC4200F0E180BC68636823F0030385
S32D000124C8AB42A3EB050201D30F2A05DC304600F091F9BBE77A6876E7631942F0010245F0010565603046BB6062
S32D000124F05A6000F083F90834204603B0BDE8F08FD9681A44F9E6D3689A427FF4F1AE023031E7B2F5206F4FEABE
S32D0001251852236CD3142B00F21A8103F15C01C9005B3307EB010E7958AEF1080E8E4503D1F3E089688E4504D0D3
S32D000125404B6823F003039342F7D8D1F80CE07A68C4E9021ECEF80840CC6038E7142B6FD9542B00F200812B0B90
S32D0001256803F16F0003F16E0CC300EBE60EF1010E1EF0030F04F108047FF437AF67E0424444465368D8F80C1059
S32D0001259043F00103536054F8083F3046D9608B6000F02CF9B5E622443046536843F001035360083400F022F98D
S32D000125B8ABE6E80805F108028EE600BF50110020581100208C190020611945F00105656043F00105C7E90411F9
S32D000125E03046C1F808C0C1F80CC04D60A35000F005F908348DE6930903F13901C900383393E7D8F8041019445A
S32D00012608C8F8041008463DD1CAF30B02D2BBD7F808A04B4443F00103CAF80430D8F82C208A42D8F8302038BFEA
S32D00012630C8F82C108A4238BFC8F83010544641E703F15C0003F15B0CC3007FE659F808394B4540F0CF8010F086
S32D00012658030F00F1FF30F5D17B6823EA01037B60490099423FF6FAAE19B9F7E649000EF1040E1942FAD07046A7
S32D00012680B3E6D8F804001844C8F80400D7F8082401321BBFAAEB0B021218C7F808A4C8F804201AF0070245D053
S32D000126A8C2F108018A44C2F5805153440831C91AC1F30B0B594630460192009300F09CF8421CDDE9003276D019
S32D000126D0A0EB0A0000EB0B03D8F80420C7F808A043F001030BEB0201BC42CAF80430C8F8041097D0B9F10F0FCB
S32D000126F83FD96268A9F10C0323F0070302F001021A436260E21805200F2B5060906048D8DAF8043082E710332C
S32D00012720BEE69A104FF001087B6808FA02F21A437A600DE70AEB03014942C1F30B0B594630460192009300F077
S32D000127485BF8431CDDE90032BED19346C0E7542B13D8130B03F16F01C9006E33E1E6B3F5AA7F13D8EB0B03F1E6
S32D00012770780003F1770CC300E8E50123CAF80430A8E6B3F5AA7F21D8D30B03F17801C9007733CAE640F2545203
S32D00012798934221D8AB0C03F17D0003F17C0CC300D0E504F10801304600F0C4F8D8F80410D7F808A0ACE7083AD8
S32D000127C01344A3EB0A034FF0000B85E740F254518B420BD8930C03F17D01C9007C33A4E64FF47E737F204FF096
S32D000127E87E0CAFE54FF47E717E239AE67B6837E7704700BF704700BF38B5074D0022044608462A6000F098F95E
S32D00012810431C00D038BD2B68002BFBD0236038BDC019002070B4184C2568D5F848411CB365681F2D25DC38B936
S32D00012838AB1C0135656044F82310002070BC704704EB850C0228CCF88820D4F888614FF0010202FA05F246EA0D
S32D000128600206C4F88861CCF80831E5D1D4F88C311343C4F88C31DFE705F5A674C5F84841D6E74FF0FF30DDE782
S32D000128888C2E0100024B13B10248FFF7BDBC70470000000029220100F8B5234F0C460646FFF7A6FFBB685D6859
S32D000128B025F0030505F6EF73191B21F47F6121F00F01A1F58054B4F5805F07DB00213046FFF796FFBB682B44AD
S32D000128D8984204D03046FFF78DFF0020F8BD61423046FFF789FF01300DD0104ABB682D1B45F001055D60136879
S32D0001290030461B1B1360FFF779FF0120F8BD00213046FFF775FFBA68831A0F2BDEDD43F001035360044B03490B
